{
  "_format": "hh-sol-artifact-1",
  "contractName": "Token",
  "sourceName": "contracts/Token.sol",
  "abi": [
    {
      "inputs": [],
      "stateMutability": "nonpayable",
      "type": "constructor"
    },
    {
      "inputs": [
        {
          "internalType": "address",
          "name": "account",
          "type": "address"
        }
      ],
      "name": "chckBalance",
      "outputs": [
        {
          "internalType": "uint256",
          "name": "",
          "type": "uint256"
        }
      ],
      "stateMutability": "view",
      "type": "function"
    },
    {
      "inputs": [],
      "name": "name",
      "outputs": [
        {
          "internalType": "string",
          "name": "",
          "type": "string"
        }
      ],
      "stateMutability": "view",
      "type": "function"
    },
    {
      "inputs": [],
      "name": "owner",
      "outputs": [
        {
          "internalType": "address",
          "name": "",
          "type": "address"
        }
      ],
      "stateMutability": "view",
      "type": "function"
    },
    {
      "inputs": [],
      "name": "symbol",
      "outputs": [
        {
          "internalType": "string",
          "name": "",
          "type": "string"
        }
      ],
      "stateMutability": "view",
      "type": "function"
    },
    {
      "inputs": [],
      "name": "totalSupply",
      "outputs": [
        {
          "internalType": "uint256",
          "name": "",
          "type": "uint256"
        }
      ],
      "stateMutability": "view",
      "type": "function"
    },
    {
      "inputs": [
        {
          "internalType": "address",
          "name": "to",
          "type": "address"
        },
        {
          "internalType": "uint256",
          "name": "amount",
          "type": "uint256"
        }
      ],
      "name": "transfer",
      "outputs": [],
      "stateMutability": "nonpayable",
      "type": "function"
    }
  ],
  "bytecode": "0x60806040526040518060400160405280600d81526020017f4861726468617420546f6b656e00000000000000000000000000000000000000815250600090816200004a9190620003ac565b506040518060400160405280600381526020017f484854000000000000000000000000000000000000000000000000000000000081525060019081620000919190620003ac565b506064600255348015620000a457600080fd5b50600254600460003373ffffffffffffffffffffffffffffffffffffffff1673ffffffffffffffffffffffffffffffffffffffff1681526020019081526020016000208190555033600360006101000a81548173ffffffffffffffffffffffffffffffffffffffff021916908373ffffffffffffffffffffffffffffffffffffffff16021790555062000493565b600081519050919050565b7f4e487b7100000000000000000000000000000000000000000000000000000000600052604160045260246000fd5b7f4e487b7100000000000000000000000000000000000000000000000000000000600052602260045260246000fd5b60006002820490506001821680620001b457607f821691505b602082108103620001ca57620001c96200016c565b5b50919050565b60008190508160005260206000209050919050565b60006020601f8301049050919050565b600082821b905092915050565b600060088302620002347fffffffffffffffffffffffffffffffffffffffffffffffffffffffffffffffff82620001f5565b620002408683620001f5565b95508019841693508086168417925050509392505050565b6000819050919050565b6000819050919050565b60006200028d62000287620002818462000258565b62000262565b62000258565b9050919050565b6000819050919050565b620002a9836200026c565b620002c1620002b88262000294565b84845462000202565b825550505050565b600090565b620002d8620002c9565b620002e58184846200029e565b505050565b5b818110156200030d5762000301600082620002ce565b600181019050620002eb565b5050565b601f8211156200035c576200032681620001d0565b6200033184620001e5565b8101602085101562000341578190505b620003596200035085620001e5565b830182620002ea565b50505b505050565b600082821c905092915050565b6000620003816000198460080262000361565b1980831691505092915050565b60006200039c83836200036e565b9150826002028217905092915050565b620003b78262000132565b67ffffffffffffffff811115620003d357620003d26200013d565b5b620003df82546200019b565b620003ec82828562000311565b600060209050601f8311600181146200042457600084156200040f578287015190505b6200041b85826200038e565b8655506200048b565b601f1984166200043486620001d0565b60005b828110156200045e5784890151825560018201915060208501945060208101905062000437565b868310156200047e57848901516200047a601f8916826200036e565b8355505b6001600288020188555050505b505050505050565b6108f080620004a36000396000f3fe608060405234801561001057600080fd5b50600436106100625760003560e01c806306fdde031461006757806318160ddd146100855780638da5cb5b146100a357806395d89b41146100c1578063a9059cbb146100df578063f8af8c74146100fb575b600080fd5b61006f61012b565b60405161007c9190610569565b60405180910390f35b61008d6101b9565b60405161009a91906105a4565b60405180910390f35b6100ab6101bf565b6040516100b89190610600565b60405180910390f35b6100c96101e5565b6040516100d69190610569565b60405180910390f35b6100f960048036038101906100f49190610678565b610273565b005b610115600480360381019061011091906106b8565b6103c8565b60405161012291906105a4565b60405180910390f35b6000805461013890610714565b80601f016020809104026020016040519081016040528092919081815260200182805461016490610714565b80156101b15780601f10610186576101008083540402835291602001916101b1565b820191906000526020600020905b81548152906001019060200180831161019457829003601f168201915b505050505081565b60025481565b600360009054906101000a900473ffffffffffffffffffffffffffffffffffffffff1681565b600180546101f290610714565b80601f016020809104026020016040519081016040528092919081815260200182805461021e90610714565b801561026b5780601f106102405761010080835404028352916020019161026b565b820191906000526020600020905b81548152906001019060200180831161024e57829003601f168201915b505050505081565b610296604051806060016040528060348152602001610887603491398284610411565b80600460003373ffffffffffffffffffffffffffffffffffffffff1673ffffffffffffffffffffffffffffffffffffffff168152602001908152602001600020541015610318576040517f08c379a000000000000000000000000000000000000000000000000000000000815260040161030f90610791565b60405180910390fd5b80600460003373ffffffffffffffffffffffffffffffffffffffff1673ffffffffffffffffffffffffffffffffffffffff168152602001908152602001600020600082825461036791906107e0565b9250508190555080600460008473ffffffffffffffffffffffffffffffffffffffff1673ffffffffffffffffffffffffffffffffffffffff16815260200190815260200160002060008282546103bd9190610814565b925050819055505050565b6000600460008373ffffffffffffffffffffffffffffffffffffffff1673ffffffffffffffffffffffffffffffffffffffff168152602001908152602001600020549050919050565b6104ab83838360405160240161042993929190610848565b6040516020818303038152906040527f1c7ec448000000000000000000000000000000000000000000000000000000007bffffffffffffffffffffffffffffffffffffffffffffffffffffffff19166020820180517bffffffffffffffffffffffffffffffffffffffffffffffffffffffff83818316178352505050506104b0565b505050565b60008151905060006a636f6e736f6c652e6c6f679050602083016000808483855afa5050505050565b600081519050919050565b600082825260208201905092915050565b60005b838110156105135780820151818401526020810190506104f8565b60008484015250505050565b6000601f19601f8301169050919050565b600061053b826104d9565b61054581856104e4565b93506105558185602086016104f5565b61055e8161051f565b840191505092915050565b600060208201905081810360008301526105838184610530565b905092915050565b6000819050919050565b61059e8161058b565b82525050565b60006020820190506105b96000830184610595565b92915050565b600073ffffffffffffffffffffffffffffffffffffffff82169050919050565b60006105ea826105bf565b9050919050565b6105fa816105df565b82525050565b600060208201905061061560008301846105f1565b92915050565b600080fd5b610629816105df565b811461063457600080fd5b50565b60008135905061064681610620565b92915050565b6106558161058b565b811461066057600080fd5b50565b6000813590506106728161064c565b92915050565b6000806040838503121561068f5761068e61061b565b5b600061069d85828601610637565b92505060206106ae85828601610663565b9150509250929050565b6000602082840312156106ce576106cd61061b565b5b60006106dc84828501610637565b91505092915050565b7f4e487b7100000000000000000000000000000000000000000000000000000000600052602260045260246000fd5b6000600282049050600182168061072c57607f821691505b60208210810361073f5761073e6106e5565b5b50919050565b7f4e6f7420656e6f7567682042616c616e63650000000000000000000000000000600082015250565b600061077b6012836104e4565b915061078682610745565b602082019050919050565b600060208201905081810360008301526107aa8161076e565b9050919050565b7f4e487b7100000000000000000000000000000000000000000000000000000000600052601160045260246000fd5b60006107eb8261058b565b91506107f68361058b565b925082820390508181111561080e5761080d6107b1565b5b92915050565b600061081f8261058b565b915061082a8361058b565b9250828201905080821115610842576108416107b1565b5b92915050565b600060608201905081810360008301526108628186610530565b90506108716020830185610595565b61087e60408301846105f1565b94935050505056fe2d2d2d2d2d2d2d2d2d73656e6465722069732073656e64696e6720257320746f6b656e7320746f2025732d2d2d2d2d2d2d2d2d2da26469706673582212204da51ea0ec66d36bcead35befaa330b903d5cea011780e4abf9ac55c8ef8a75164736f6c63430008110033",
  "linkReferences": {},
  "deployedLinkReferences": {}
}